:020000040800F2
:1000000000100020FF010008FD010008B9010008F0
:10001000FD010008FD010008FD01000800000000CE
:10002000000000000000000000000000FD010008CA
:10003000FD01000800000000FD0100082901000882
:1000400081B0694608800D4800680D4909688842FA
:1000500008D80B48006809490968401A69460988A8
:10006000884208D9074908680422504008600448BB
:1000700000680249086001B07047C04604000020D3
:080080000000002014000048FC
:1000880000B581B00020009000F010F87D208001BC
:1000980000F020F80448FFF7CFFF01200028F9D12D
:0C00A800009801B000BDC046E703000056
:1000B4000849086801225304184308600868920438
:1000C400104308600920C106086810221043086024
:0800D4007047C0461410024001
:1000DC0000B583B001900198401E000E002802D09C
:1000EC000120029010E00198401E09490860002090
:1000FC000090C043032100F019F8009805490860EE
:10010C00054A072111600290029803B000BDC04659
:0C011C0014E000E018E000E010E000E05B
:1001280002490868401C08607047C046000000206B
:1001380070B582B0024601A80270009100214056B5
:10014800002815D4002401A908570322D3431840D6
:10015800164A805809578C07E50EFF24AC40A04387
:10016800009CA401E4B2AC4020431940885019E037
:1001780001A908780F24204008380322D3431840E7
:10018800094A8058002549578D07EE0EFF25B540CE
:10019800A843009DAD01EDB2B54028432140083980
:1001A8001940885002B070BD1CED00E000E400E08A
:1001B8000A490A68002AFED404207146084202D17E
:1001C800EFF3088001E0EFF309800123DB071A430E
:1001D8000A60816902318161704700002CED00E0FE
:1001E800034C206804348047FBE7FFF749FFFEE72C
:0401F80010020008E9
:0201FC00FEE71C
:1001FE0008200068C046C04600BF00BFFFF7EDFFF5
:10021000210200080000002008000000F30100088F
:10022000206861680834002200E042540139FCD59E
:02023000704715
:04000005080001FFEF
:00000001FF
